:020000040800F2
:1000000000000220B9070008090800084507000899
:100010004707000849070008090800080000000019
:1000200000000000000000000000000009080008B7
:1000300009080008000000003D0400082104000831
:10004000090800080908000809080008090800084C
:1000500000000000090800084D0700080908000812
:10006000090800080908000809080008090800082C
:10007000090800080908000809080008090800081C
:10008000090800080908000809080008090800080C
:1000900009080008090800080908000809080008FC
:1000A00009080008090800080908000809080008EC
:1000B00009080008090800080908000809080008DC
:1000C00009080008090800080908000809080008CC
:1000D00009080008090800080908000809080008BC
:1000E00009080008090800080908000809080008AC
:1000F000090800080908000809080008090800089C
:10010000090800080908000809080008090800088B
:10011000090800080908000809080008090800087B
:10012000090800080908000809080008090800086B
:10013000090800080908000809080008090800085B
:10014000090800080908000809080008090800084B
:10015000090800080908000809080008090800083B
:10016000090800080908000809080008090800082B
:10017000090800080908000809080008090800081B
:08018000090800080908000845
:1001880010B5054C237833B9044B13B10448AFF3C9
:1001980000800123237010BD5400002000000000DF
:1001A8005408000808B5034B1BB103490348AFF3D3
:1001B800008008BD00000000580000205408000816
:1001C80062B630BFFDE7000030B572B6124A136858
:1001D8001BB962B64FF0FF3030BD0A21116062B61C
:1001E8000E4D0F492C68092C04F1010008BF0020AE
:1001F80051F8241028604FF04024087818B9013BC2
:100208001360E9E700BFD4F800044006FAD511F8F6
:10021800010BC4F80404F0E7700000207800002007
:100228007C0000204FF0E022D2F8243D43F4E02384
:10023800C2F8243D70470000104B1149F0B5002268
:10024800104C114F1A604FF0807507226FF00206AC
:1002580051F8043B43F8045C54F8040B43F8080CC9
:1002680043F80C6CA3F10C00403B40F8047D83423A
:10027800FBD1013A41F8043CEAD1F0BD3800002036
:100288001C00002000000020EFBEADDE00F0FC03E3
:1002980003F1604303F5644310B500F003001A68E6
:1002A800C000FF2409018440C9B222EA0402814047
:1002B8000A431A6010BD000072B64FF0E023002216
:1002C8001A619A6143F67F625A6107221A61044AE9
:1002D800C3F8202D4FF07042C3F81C2D62B670474A
:1002E8000000F0F0431E052B9CBF024B43F8201082
:1002F800704700BF380000200021FFF7F3BF00005F
:100308000E4A38B513680A2B16D072B60C4D0D4B31
:100318002C6843F824001368092C03F101014FF0FD
:10032800050004F1010308BF002311602B60FFF7EB
:10033800E3FF62B6012038BD0020FCE77000002012
:10034800740000207C000020054B1A68054B43F818
:1003580022004FF0E0234FF08052C3F8042D70477D
:10036800A400002038000020022181F3148885466B
:10037800704785467047000072B60748FFF7F9FFD7
:10038800FFF75AFF0548FFF74DFFFFF7EDFFFFF7AF
:1003980093FF0349084700BF80F8012000000220AE
:1003A800C9010008024B1A68024B43F82200704743
:1003B800A40000201C000020024B1A68024B53F8CE
:1003C80022007047A40000201C000020104B30B50C
:1003D80001221D4653F8041F0139C81C02F101020D
:1003E80098BF1960072AF5D10A48036814460133F3
:1003F800B3FBF4F1C1EBC1015B1A55F8231001B945
:1004080023B9013AF3D1002918BF0023036030BD96
:1004180038000020A4000020054A13680133136047
:100428004FF0E0234FF08052C3F8042D704700BF0F
:10043800A800002072B600B5EFF3098020E9F00F9C
:10044800FFF7B0FFFFF7C2FFFFF7B6FFB0E8F00F06
:1004580080F3098862B600BD47F63003038000F0D8
:1004680000B802230A0F090130323A2A00D30732B2
:10047800C25201330A2BF5D1704740F60D210160B5
:100488007047000030B54FF0000505604560856095
:100498000D4BA3FB0143DC0822000A2304FB03F4F1
:1004A8000C1B44F030044453013511460029EFD1A8
:1004B80020B4013D445D425C425544540131013D44
:1004C8008D4200D0F6DC31BDCDCCCCCC034A52F8FD
:1004D800203083F0010342F8203070478082414287
:1004E800074AD2F8303843F00803C2F83038A2F58A
:1004F8004052D2F8003C43F0AA43C2F8003C70478F
:1005080000300240044A4109012300F01F008340E3
:1005180042F821307047000000E100E008B5FFF71D
:10052800DFFF00F01BF9184BD3F8442842F480424F
:10053800C3F84428D3F8402842F08052C3F8402832
:10054800D3F8302842F00102C3F83028BFF34F8FA8
:100558000E4A136823F0030313600D4BD3F8082CDD
:1005680042F00102C3F8082CD3F8002C42F0010233
:10057800C3F8002C0E210620FFF788FE0620FFF79F
:10058800C1FFFFF7F9FEFEE700300240000002401D
:100598000030014070B52D4C2D4D8AB00C20FFF76E
:1005A80095FF23682B4A5343B3F1333F0BD82A4EA8
:1005B8003046FFF7A5FE0028FAD0284E3046FFF750
:1005C8009FFE0028FAD0264E3046FFF799FE0028F5
:1005D800FAD021682846FFF755FF236801332360C6
:1005E8002846FFF78DFE0028FAD01E4E3046FFF74A
:1005F80087FE0028FAD01C491C4E05A8FFF72CFFDF
:100608004FF040236846D3F80814FFF725FF0DF193
:100618000A00FFF732FF3046FFF772FE0028FAD0D3
:1006280005A8FFF76DFE0028FAD0114E3046FFF7F7
:1006380067FE0028FAD06846FFF762FE0028FAD065
:100648004FF47A70FFF780FEA8E700BFAC000020E7
:10065800B0000020CDCCCCCC7B0900083C090008B8
:100668006C08000881080008084400409A0800083F
:10067800A808000810B5074C0D20FFF727FF2046F3
:10068800FFF73EFE0028FAD04FF4FA70FFF75CFE41
:10069800F2E700BFB908000810B5064C0E20FFF7B6
:1006A80015FF2046FFF72CFE0028FAD0FA20FFF7A6
:1006B8004BFEF3E7CC08000810B5064C0F20FFF7F7
:1006C80005FF2046FFF71CFE0028FAD07D20FFF723
:1006D8003BFEF3E7DF08000808B5FFF775FDFFF7F5
:1006E80033FEFAE770B5114D114C2846FFF708FEA6
:1006F8000028FAD01420FFF727FE2369DB0713D45C
:100708000C4E3046FFF7FCFD0028FAD01420FFF706
:100718001BFE094B0122C3F8142CC3F8002C4FF020
:10072800FF30FFF711FEE0E70A20E4E7F2080008CF
:10073800000002401409000800300140FEE7FEE70F
:10074800FEE70000044B0122C3F8142C0022C3F872
:10075800002C0620FFF7D0BD00300140134BD3F822
:10076800402842F40032C3F84028D3F8302842F039
:100778000102C3F83028BFF34F8FA3F540531A681E
:1007880042F0A0021A609A6842F0F0029A601A6A6F
:1007980042F4EE421A624FF040238A22C3F808243A
:1007A80042F20C02C3F80C24704700BF003002402C
:1007B8000D488546AFF300800C480D490D4A0023CB
:1007C80002E0D458C4500433C4188C42F9D30A4AFE
:1007D8000A4C002301E013600432A242FBD300F06C
:1007E80011F8FFF79BFEFEE7000002200000002042
:1007F800540000209809000854000020C40000207C
:10080800FEE7000070B50D4D0D4C641BA4100026CA
:10081800A64209D10B4D0C4C00F018F8641BA4102B
:100828000026A64205D170BD55F8043B984701360D
:10083800EEE755F8043B98470136F2E790090008BF
:10084800900900089009000894090008F8B500BF4D
:10085800F8BC08BC9E467047F8B500BFF8BC08BC99
:040868009E467047F1
:10086C000D0A5072696E742066726F6D205441537C
:10087C004B310D0A00205365636F6E6473206672F2
:10088C006F6D2073746172742E2E2E0D0A005265DA
:10089C006769737465722061743A200020636F6E0F
:1008AC007461696E732076616C7565200050726995
:1008BC006E742066726F6D205441534B320D0A00DA
:1008CC005072696E742066726F6D205441534B33B5
:1008DC000D0A005072696E742066726F6D2054415F
:1008EC00534B340D0A000D0A202E2E2E2042555447
:1008FC00544F4E2050524553534544202E2E2E20FB
:10090C002121210D0A0D0A000D0A202E2E2E2E2E2D
:10091C002E2E20425554544F4E2052454C45415397
:10092C00534544202E2E2E2E2E2E2E0D0A0D0A004F
:10093C004D592052544F5320636F64656420627983
:10094C0020776567690D0A52415720564552534925
:10095C004F4E2072756E6E696E67200D0D0A0A532C
:10096C00544152544544202121210D0D0A0A001BEB
:10097C005B324A1B5B334A1B5B39326D1B5B303B72
:04098C0030660000D1
:04099000AD010008AD
:0409940089010008CD
:10099800C90100089D0500087D060008A106000899
:1009A800C1060008E1060008ED0600080000022064
:1009B80080FF012080FE012080FD012080FC0120B5
:1009C80080FB012080F901200000000000000000E9
:1009D800000000000000000000000000FFFFFFFF13
:0409E800FFFFFFFF0F
:04000005080007B92F
:00000001FF
