:020000040800F2
:1000000000000220E5070008350800087107000815
:100010007307000875070008350800080000000095
:10002000000000000000000000000000350800088B
:100030003508000800000000DD040008C1040008C5
:10004000350800083508000835080008350800089C
:10005000000000003508000879070008350800088E
:10006000350800083508000835080008350800087C
:10007000350800083508000835080008350800086C
:10008000350800083508000835080008350800085C
:10009000350800083508000835080008350800084C
:1000A000350800083508000835080008350800083C
:1000B000350800083508000835080008350800082C
:1000C000350800083508000835080008350800081C
:1000D000350800083508000835080008350800080C
:1000E00035080008350800083508000835080008FC
:1000F00035080008350800083508000835080008EC
:1001000035080008350800083508000835080008DB
:1001100035080008350800083508000835080008CB
:1001200035080008350800083508000835080008BB
:1001300035080008350800083508000835080008AB
:10014000350800083508000835080008350800089B
:10015000350800083508000835080008350800088B
:10016000350800083508000835080008350800087B
:10017000350800083508000835080008350800086B
:080180003508000835080008ED
:1001900010B5054C237833B9044B13B10448AFF3C1
:1001A00000800123237010BD5400002000000000D7
:1001B0008008000808B5034B1BB103490348AFF39F
:1001C000008008BD000000005800002080080008E2
:1001D00040F60D210160704704B5190000F005F8E4
:1001E00002BC083000F004F800BD47F6300303807D
:1001F00002230A0F090130323A2A00D30732C252D1
:1002000001330A2BF5D17047002909DA00B52D22F8
:1002100002700130C1F1000100F002F8013000BDB0
:1002200030B54FF000050560456085600D4BA3FBC0
:100230000143DC0822000A2304FB03F40C1B44F0F6
:1002400030044453013511460029EFD120B4013D5B
:10025000445D425C425544540131013D8D4200D021
:10026000F6DC31BDCDCCCCCC62B630BFFDE70000B2
:1002700030B572B6124A13681BB962B64FF0FF3040
:1002800030BD0A21116062B60E4D0F492C68092C51
:1002900004F1010008BF002051F8241028604FF03D
:1002A0004024087818B9013B1360E9E700BFD4F88F
:1002B00000044006FAD511F8010BC4F80404F0E775
:1002C0007800002080000020840000204FF0E02211
:1002D000D2F8243D43F4E023C2F8243D70470000E7
:1002E000104B1149F0B50022104C114F1A604FF01D
:1002F000807507226FF0020651F8043B43F8045C56
:1003000054F8040B43F8080C43F80C6CA3F10C00F0
:10031000403B40F8047D8342FBD1013A41F8043C64
:10032000EAD1F0BD380000201C00002000000020B1
:10033000EFBEADDE00F0FC0303F1604303F5644360
:1003400010B500F003001A68C000FF2409018440C2
:10035000C9B222EA040281400A431A6010BD0000BB
:1003600072B64FF0E02300221A619A6143F67F6271
:100370005A6107221A61044AC3F8202D4FF07042D7
:10038000C3F81C2D62B670470000F0F0431E052B29
:100390009CBF024B43F82010704700BF380000207C
:1003A0000021FFF7F3BF00000E4A38B513680A2B8F
:1003B00016D072B60C4D0D4B2C6843F82400136810
:1003C000092C03F101014FF0050004F1010308BFFE
:1003D000002311602B60FFF7E3FF62B6012038BDF8
:1003E0000020FCE7780000207C0000208400002032
:1003F000054B1A68054B43F822004FF0E0234FF0FD
:100400008052C3F8042D704770000020380000208F
:10041000022181F3148885467047854670470000A5
:1004200072B60748FFF7F9FFFFF75AFF0548FFF7D5
:100430004DFFFFF7EDFFFFF793FF0349084700BFAC
:1004400080F801200000022069020008024B1A68AF
:10045000024B43F822007047700000201C0000206F
:10046000024B1A68024B53F82200704770000020BC
:100470001C000020104B30B501221D4653F8041F0C
:100480000139C81C02F1010298BF1960072AF5D191
:100490000A48036814460133B3FBF4F1C1EBC10110
:1004A0005B1A55F8231001B923B9013AF3D1002999
:1004B00018BF0023036030BD38000020700000200A
:1004C000054A1368013313604FF0E0234FF0805268
:1004D000C3F8042D704700BF7400002072B600B549
:1004E000EFF3098020E9F00FFFF7B0FFFFF7C2FF3D
:1004F000FFF7B6FFB0E8F00F80F3098862B600BDE1
:10050000034A52F8203083F0010342F8203070474C
:1005100080824142074AD2F8303843F00803C2F8DB
:100520003038A2F54052D2F8003C43F0AA43C2F85A
:10053000003C704700300240044A4109012300F0AA
:100540001F00834042F821307047000000E100E0C6
:1005500008B5FFF7DFFF00F01BF9184BD3F844286C
:1005600042F48042C3F84428D3F8402842F0805235
:10057000C3F84028D3F8302842F00102C3F83028ED
:10058000BFF34F8F0E4A136823F0030313600D4B24
:10059000D3F8082C42F00102C3F8082CD3F8002C41
:1005A00042F00102C3F8002C0E210620FFF7C2FE24
:1005B0000620FFF7C1FFFFF733FFFEE700300240E0
:1005C000000002400030014070B52D4C2D4D8AB026
:1005D0000C20FFF795FF23682B4A5343B3F1333FB9
:1005E0000BD82A4E3046FFF7DFFE0028FAD0284EFF
:1005F0003046FFF7D9FE0028FAD0264E3046FFF7E6
:10060000D3FE0028FAD021682846FFF709FE2368A8
:10061000013323602846FFF7C7FE0028FAD01E4E9C
:100620003046FFF7C1FE0028FAD01C491C4E05A831
:10063000FFF7DBFD4FF040236846D3F80814FFF7BF
:10064000D4FD0DF10A00FFF7C3FD3046FFF7ACFE05
:100650000028FAD005A8FFF7A7FE0028FAD0114E0F
:100660003046FFF7A1FE0028FAD06846FFF79CFE4F
:100670000028FAD04FF47A70FFF7BAFEA8E700BF5F
:10068000AC000020B0000020CDCCCCCCA7090008E5
:100690006809000898080008AD08000808440040F0
:1006A000C6080008D408000810B5074C0D20FFF755
:1006B00027FF2046FFF778FE0028FAD04FF4FA70A3
:1006C000FFF796FEF2E700BFE508000810B5064CFC
:1006D0000E20FFF715FF2046FFF766FE0028FAD030
:1006E000FA20FFF785FEF3E7F808000810B5064C7E
:1006F0000F20FFF705FF2046FFF756FE0028FAD02F
:100700007D20FFF775FEF3E70B09000808B5FFF73A
:10071000AFFDFFF76DFEFAE770B5114D114C28469D
:10072000FFF742FE0028FAD01420FFF761FE23698C
:10073000DB0713D40C4E3046FFF736FE0028FAD004
:100740001420FFF755FE094B0122C3F8142CC3F8FF
:10075000002C4FF0FF30FFF74BFEE0E70A20E4E704
:100760001E09000800000240400900080030014056
:10077000FEE7FEE7FEE70000044B0122C3F8142C5D
:100780000022C3F8002C0620FFF70ABE003001400B
:10079000134BD3F8402842F40032C3F84028D3F872
:1007A000302842F00102C3F83028BFF34F8FA3F581
:1007B00040531A6842F0A0021A609A6842F0F002B0
:1007C0009A601A6A42F4EE421A624FF040238A227B
:1007D000C3F8082442F20C02C3F80C24704700BF8F
:1007E000003002400D488546AFF300800C480D49AB
:1007F0000D4A002302E0D458C4500433C4188C427C
:10080000F9D30A4A0A4C002301E013600432A242E1
:10081000FBD300F011F8FFF79BFEFEE7000002207B
:100820000000002054000020C409000854000020EB
:10083000C4000020FEE7000070B50D4D0D4C641B98
:10084000A4100026A64209D10B4D0C4C00F018F85C
:10085000641BA4100026A64205D170BD55F8043BC8
:1008600098470136EEE755F8043B98470136F2E722
:10087000BC090008BC090008BC090008C009000840
:10088000F8B500BFF8BC08BC9E467047F8B500BF7D
:08089000F8BC08BC9E4670474D
:100898000D0A5072696E742066726F6D2054415350
:1008A8004B310D0A00205365636F6E6473206672C6
:1008B8006F6D2073746172742E2E2E0D0A005265AE
:1008C8006769737465722061743A200020636F6EE3
:1008D8007461696E732076616C7565200050726969
:1008E8006E742066726F6D205441534B320D0A00AE
:1008F8005072696E742066726F6D205441534B3389
:100908000D0A005072696E742066726F6D20544132
:10091800534B340D0A000D0A202E2E2E204255541A
:10092800544F4E2050524553534544202E2E2E20CE
:100938002121210D0A0D0A000D0A202E2E2E2E2E01
:100948002E2E20425554544F4E2052454C4541536B
:10095800534544202E2E2E2E2E2E2E0D0A0D0A0023
:100968004D592052544F5320636F64656420627957
:1009780020776567690D0A524157205645525349F9
:100988004F4E2072756E6E696E67200D0D0A0A5300
:10099800544152544544202121210D0D0A0A001BBF
:1009A8005B324A1B5B334A1B5B39326D1B5B303B46
:0409B80030660000A5
:0409BC00B501000879
:0409C0009101000899
:1009C40069020008C9050008A9060008CD06000848
:1009D400ED0600080D0700081907000800000220B2
:1009E40080FF012080FE012080FD012080FC012089
:1009F40080FB012080F901200000000000000000BD
:100A0400000000000000000000000000FFFFFFFFE6
:040A1400FFFFFFFFE2
:04000005080007E503
:00000001FF
